{
  "_format": "hh-sol-artifact-1",
  "contractName": "WavePortal",
  "sourceName": "contracts/WaveContract.sol",
  "abi": [
    {
      "inputs": [],
      "stateMutability": "payable",
      "type": "constructor"
    },
    {
      "anonymous": false,
      "inputs": [
        {
          "indexed": false,
          "internalType": "address",
          "name": "sender",
          "type": "address"
        },
        {
          "indexed": false,
          "internalType": "string",
          "name": "message",
          "type": "string"
        },
        {
          "indexed": false,
          "internalType": "uint256",
          "name": "timesamp",
          "type": "uint256"
        },
        {
          "indexed": false,
          "internalType": "bool",
          "name": "result",
          "type": "bool"
        },
        {
          "indexed": false,
          "internalType": "uint256",
          "name": "seed",
          "type": "uint256"
        }
      ],
      "name": "NewWave",
      "type": "event"
    },
    {
      "inputs": [],
      "name": "getTotalWaves",
      "outputs": [
        {
          "internalType": "uint256",
          "name": "",
          "type": "uint256"
        }
      ],
      "stateMutability": "view",
      "type": "function"
    },
    {
      "inputs": [],
      "name": "getWaves",
      "outputs": [
        {
          "components": [
            {
              "internalType": "address",
              "name": "sender",
              "type": "address"
            },
            {
              "internalType": "string",
              "name": "message",
              "type": "string"
            },
            {
              "internalType": "uint256",
              "name": "timestamp",
              "type": "uint256"
            },
            {
              "internalType": "bool",
              "name": "result",
              "type": "bool"
            }
          ],
          "internalType": "struct WavePortal.Wave[]",
          "name": "",
          "type": "tuple[]"
        }
      ],
      "stateMutability": "view",
      "type": "function"
    },
    {
      "inputs": [
        {
          "internalType": "address",
          "name": "",
          "type": "address"
        }
      ],
      "name": "lastWavedAt",
      "outputs": [
        {
          "internalType": "uint256",
          "name": "",
          "type": "uint256"
        }
      ],
      "stateMutability": "view",
      "type": "function"
    },
    {
      "inputs": [
        {
          "internalType": "string",
          "name": "message",
          "type": "string"
        }
      ],
      "name": "wave",
      "outputs": [],
      "stateMutability": "nonpayable",
      "type": "function"
    }
  ],
  "bytecode": "0x60806040526200004f6040518060400160405280601a81526020017f48656c6c6f20646563656e7472616c697a656420776f726c64210000000000008152506200007760201b620006b51760201c565b606444426200005f9190620001c4565b6200006b919062000261565b60018190555062000308565b62000117816040516024016200008e919062000184565b6040516020818303038152906040527f41304fac000000000000000000000000000000000000000000000000000000007bffffffffffffffffffffffffffffffffffffffffffffffffffffffff19166020820180517bffffffffffffffffffffffffffffffffffffffffffffffffffffffff83818316178352505050506200011a60201b60201c565b50565b60008151905060006a636f6e736f6c652e6c6f679050602083016000808483855afa5050505050565b60006200015082620001a8565b6200015c8185620001b3565b93506200016e8185602086016200022b565b6200017981620002f7565b840191505092915050565b60006020820190508181036000830152620001a0818462000143565b905092915050565b600081519050919050565b600082825260208201905092915050565b6000620001d18262000221565b9150620001de8362000221565b9250827fffffffffffffffffffffffffffffffffffffffffffffffffffffffffffffffff0382111562000216576200021562000299565b5b828201905092915050565b6000819050919050565b60005b838110156200024b5780820151818401526020810190506200022e565b838111156200025b576000848401525b50505050565b60006200026e8262000221565b91506200027b8362000221565b9250826200028e576200028d620002c8565b5b828206905092915050565b7f4e487b7100000000000000000000000000000000000000000000000000000000600052601160045260246000fd5b7f4e487b7100000000000000000000000000000000000000000000000000000000600052601260045260246000fd5b6000601f19601f8301169050919050565b61130780620003186000396000f3fe608060405234801561001057600080fd5b506004361061004c5760003560e01c8063449d46c0146100515780639a2cdc081461006d578063a42a46631461008b578063a9d42f7e146100bb575b600080fd5b61006b60048036038101906100669190610a97565b6100d9565b005b6100756104e6565b6040516100829190610ecd565b60405180910390f35b6100a560048036038101906100a09190610a6e565b610531565b6040516100b29190610ecd565b60405180910390f35b6100c3610549565b6040516100d09190610d8b565b60405180910390f35b42600f600260003373ffffffffffffffffffffffffffffffffffffffff1673ffffffffffffffffffffffffffffffffffffffff168152602001908152602001600020546101269190610faf565b10610166576040517f08c379a000000000000000000000000000000000000000000000000000000000815260040161015d90610ead565b60405180910390fd5b42600260003373ffffffffffffffffffffffffffffffffffffffff1673ffffffffffffffffffffffffffffffffffffffff1681526020019081526020016000208190555060016000808282546101bc9190610faf565b925050819055506102026040518060400160405280600e81526020017f25732068617320776176656421210000000000000000000000000000000000008152503361074e565b606444426102109190610faf565b61021a91906110f2565b6001819055506000603260015410905061026c6040518060400160405280601181526020017f736565643a2025642c20776f6e3a202573000000000000000000000000000000815250600154836107ea565b600360405180608001604052803373ffffffffffffffffffffffffffffffffffffffff168152602001848152602001428152602001831515815250908060018154018082558091505060019003906000526020600020906004020160009091909190915060008201518160000160006101000a81548173ffffffffffffffffffffffffffffffffffffffff021916908373ffffffffffffffffffffffffffffffffffffffff160217905550602082015181600101908051906020019061033392919061094e565b506040820151816002015560608201518160030160006101000a81548160ff021916908315150217905550505080156104a1576103a56040518060400160405280600781526020017f257320776f6e21000000000000000000000000000000000000000000000000008152503361074e565b6000655af3107a400090504781106103f2576040517f08c379a00000000000000000000000000000000000000000000000000000000081526004016103e990610e6d565b60405180910390fd5b60003373ffffffffffffffffffffffffffffffffffffffff168260405161041890610d1c565b60006040518083038185875af1925050503d8060008114610455576040519150601f19603f3d011682016040523d82523d6000602084013e61045a565b606091505b505090508061049e576040517f08c379a000000000000000000000000000000000000000000000000000000000815260040161049590610e8d565b60405180910390fd5b50505b7f5404d91ee640fe218d4426d9b66e5c818f9a9a1d4dcb17dc1800586676fd6ef2338342846001546040516104da959493929190610d31565b60405180910390a15050565b60006105296040518060400160405280601f81526020017f5765206861766520256420776176657320617420746865206d6f6d656e742100815250600054610889565b600054905090565b60026020528060005260406000206000915090505481565b60606003805480602002602001604051908101604052809291908181526020016000905b828210156106ac57838290600052602060002090600402016040518060800160405290816000820160009054906101000a900473ffffffffffffffffffffffffffffffffffffffff1673ffffffffffffffffffffffffffffffffffffffff1673ffffffffffffffffffffffffffffffffffffffff1681526020016001820180546105f69061108f565b80601f01602080910402602001604051908101604052809291908181526020018280546106229061108f565b801561066f5780601f106106445761010080835404028352916020019161066f565b820191906000526020600020905b81548152906001019060200180831161065257829003601f168201915b50505050508152602001600282015481526020016003820160009054906101000a900460ff1615151515815250508152602001906001019061056d565b50505050905090565b61074b816040516024016106c99190610dad565b6040516020818303038152906040527f41304fac000000000000000000000000000000000000000000000000000000007bffffffffffffffffffffffffffffffffffffffffffffffffffffffff19166020820180517bffffffffffffffffffffffffffffffffffffffffffffffffffffffff8381831617835250505050610925565b50565b6107e68282604051602401610764929190610dcf565b6040516020818303038152906040527f319af333000000000000000000000000000000000000000000000000000000007bffffffffffffffffffffffffffffffffffffffffffffffffffffffff19166020820180517bffffffffffffffffffffffffffffffffffffffffffffffffffffffff8381831617835250505050610925565b5050565b61088483838360405160240161080293929190610e2f565b6040516020818303038152906040527ff102ee05000000000000000000000000000000000000000000000000000000007bffffffffffffffffffffffffffffffffffffffffffffffffffffffff19166020820180517bffffffffffffffffffffffffffffffffffffffffffffffffffffffff8381831617835250505050610925565b505050565b610921828260405160240161089f929190610dff565b6040516020818303038152906040527f9710a9d0000000000000000000000000000000000000000000000000000000007bffffffffffffffffffffffffffffffffffffffffffffffffffffffff19166020820180517bffffffffffffffffffffffffffffffffffffffffffffffffffffffff8381831617835250505050610925565b5050565b60008151905060006a636f6e736f6c652e6c6f679050602083016000808483855afa5050505050565b82805461095a9061108f565b90600052602060002090601f01602090048101928261097c57600085556109c3565b82601f1061099557805160ff19168380011785556109c3565b828001600101855582156109c3579182015b828111156109c25782518255916020019190600101906109a7565b5b5090506109d091906109d4565b5090565b5b808211156109ed5760008160009055506001016109d5565b5090565b6000610a046109ff84610f0d565b610ee8565b905082815260208101848484011115610a1c57600080fd5b610a2784828561104d565b509392505050565b600081359050610a3e816112ba565b92915050565b600082601f830112610a5557600080fd5b8135610a658482602086016109f1565b91505092915050565b600060208284031215610a8057600080fd5b6000610a8e84828501610a2f565b91505092915050565b600060208284031215610aa957600080fd5b600082013567ffffffffffffffff811115610ac357600080fd5b610acf84828501610a44565b91505092915050565b6000610ae48383610c9b565b905092915050565b610af581611005565b82525050565b610b0481611005565b82525050565b6000610b1582610f4e565b610b1f8185610f71565b935083602082028501610b3185610f3e565b8060005b85811015610b6d5784840389528151610b4e8582610ad8565b9450610b5983610f64565b925060208a01995050600181019050610b35565b50829750879550505050505092915050565b610b8881611017565b82525050565b610b9781611017565b82525050565b6000610ba882610f59565b610bb28185610f8d565b9350610bc281856020860161105c565b610bcb816111df565b840191505092915050565b6000610be182610f59565b610beb8185610f9e565b9350610bfb81856020860161105c565b610c04816111df565b840191505092915050565b6000610c1c603483610f9e565b9150610c27826111f0565b604082019050919050565b6000610c3f602783610f9e565b9150610c4a8261123f565b604082019050919050565b6000610c62600083610f82565b9150610c6d8261128e565b600082019050919050565b6000610c85600c83610f9e565b9150610c9082611291565b602082019050919050565b6000608083016000830151610cb36000860182610aec565b5060208301518482036020860152610ccb8282610b9d565b9150506040830151610ce06040860182610cfe565b506060830151610cf36060860182610b7f565b508091505092915050565b610d0781611043565b82525050565b610d1681611043565b82525050565b6000610d2782610c55565b9150819050919050565b600060a082019050610d466000830188610afb565b8181036020830152610d588187610bd6565b9050610d676040830186610d0d565b610d746060830185610b8e565b610d816080830184610d0d565b9695505050505050565b60006020820190508181036000830152610da58184610b0a565b905092915050565b60006020820190508181036000830152610dc78184610bd6565b905092915050565b60006040820190508181036000830152610de98185610bd6565b9050610df86020830184610afb565b9392505050565b60006040820190508181036000830152610e198185610bd6565b9050610e286020830184610d0d565b9392505050565b60006060820190508181036000830152610e498186610bd6565b9050610e586020830185610d0d565b610e656040830184610b8e565b949350505050565b60006020820190508181036000830152610e8681610c0f565b9050919050565b60006020820190508181036000830152610ea681610c32565b9050919050565b60006020820190508181036000830152610ec681610c78565b9050919050565b6000602082019050610ee26000830184610d0d565b92915050565b6000610ef2610f03565b9050610efe82826110c1565b919050565b6000604051905090565b600067ffffffffffffffff821115610f2857610f276111b0565b5b610f31826111df565b9050602081019050919050565b6000819050602082019050919050565b600081519050919050565b600081519050919050565b6000602082019050919050565b600082825260208201905092915050565b600081905092915050565b600082825260208201905092915050565b600082825260208201905092915050565b6000610fba82611043565b9150610fc583611043565b9250827fffffffffffffffffffffffffffffffffffffffffffffffffffffffffffffffff03821115610ffa57610ff9611123565b5b828201905092915050565b600061101082611023565b9050919050565b60008115159050919050565b600073ffffffffffffffffffffffffffffffffffffffff82169050919050565b6000819050919050565b82818337600083830152505050565b60005b8381101561107a57808201518184015260208101905061105f565b83811115611089576000848401525b50505050565b600060028204905060018216806110a757607f821691505b602082108114156110bb576110ba611181565b5b50919050565b6110ca826111df565b810181811067ffffffffffffffff821117156110e9576110e86111b0565b5b80604052505050565b60006110fd82611043565b915061110883611043565b92508261111857611117611152565b5b828206905092915050565b7f4e487b7100000000000000000000000000000000000000000000000000000000600052601160045260246000fd5b7f4e487b7100000000000000000000000000000000000000000000000000000000600052601260045260246000fd5b7f4e487b7100000000000000000000000000000000000000000000000000000000600052602260045260246000fd5b7f4e487b7100000000000000000000000000000000000000000000000000000000600052604160045260246000fd5b6000601f19601f8301169050919050565b7f547279696e6720746f207769746864726177206d6f7265206d6f6e657920746860008201527f616e2074686520636f6e7472616374206861732e000000000000000000000000602082015250565b7f547279696e6720746f207769746864726177206d6f6e65792066726f6d20636f60008201527f6e74726163742e00000000000000000000000000000000000000000000000000602082015250565b50565b7f5761697420313520736563730000000000000000000000000000000000000000600082015250565b6112c381611005565b81146112ce57600080fd5b5056fea264697066735822122028c371197fcf5316be4e2e1e6aafe06aba7b1dc7307a9160e51ba40651c9480c64736f6c63430008040033",
  "linkReferences": {},
  "deployedLinkReferences": {}
}